:1005CF00B5B1C7B0D5BE3A00CFC2D2BBD5BE004180
:1005DF00383A30322F312A5741560041383A3032AB
:1005EF002F25642A57415600D4ACD6DDB9A4D2B515
:1005FF00C7F800000000000000BEAED6F1C3FBBE7E
:10060F00F4000000000000000000B3BFD1F4C2CC22
:10061F00B3C7000000000000000000BEADBFAAC7B6
:10062F00F8CEEFC1F7D6D0D0C4000000B4BAB7E708
:10063F00C2B7BFDAB6AB00000000000000CAD0BBE3
:10064F00B7B1A3BED6000000000000000000B8DF65
:10065F00CACBC3FBBED3000000000000000000D5D2
:10066F00C8D9C0F6BEB0C9BDD7AF000000000000AA
:10067F00D4ACC9BDB9ABD4B000000000000000007D
:10068F0000B8DFCABFB1B1C2B70000000000000060
:10069F000000B8DFCAD0C2B70000000000000000A1
:1006AF00000000BDD6D0C4BBA8D4B000000000002D
:1006BF00000000000000000000000000000000002B
:1006CF00000000000000000000000000000000001B
:0206DF00000019
:10077700EF75F00C8485F045AF45EF3395E0FEEF5C
:100787002401FFE43EFE7C007D0C1204A38D467B12
:10079700FF7A0579CFE4FDFF1207EDAF45EF3395FB
:1007A700E0FE7C007D1112049174F72FF974053E69
:1007B700FA7BFF7D01E4FF1207ED7BFF7A0579D70E
:1007C7007D02E4FF1207EDAF46EF3395E0FE7C00B4
:1007D7007D1112049174F72FF974053EFA7BFF7DA2
:0607E70003E4FF0207ED30
:080929007F1B7EE2DEFEDFFC15
:0109310022A3
:10090000E4FD20A30A12092920A3010D30A3FDAFA5
:0109100005E1
:0109110022C3
:1006E100E4F523F524F525F52678277C00FD7BFF2D
:1006F1007A0679C3FE7F1E1204521208EA1208D04C
:100701001209437BFF7A0579DE1208751209008F01
:1007110023EF640170591209430525E5257002058F
:1007210024C3940CE524648094804005E4F524F509
:10073100257E007F1E7D007B007A0079271204D977
:100741007548FF754905754AEAAE24AF257C007DE1
:100751000C1204A3ED2401F54CE43CF54B7B007A2B
:100761000079271200827B007A007927120875AF81
:06077100251207778096B7
:030023000209329D
:08093200309805C29885992256
:01093A00328A
:1008D000438920759850758780758DFA758BFAD28B
:0A08E000ACD2AFD28ED2AFD2AC2260
:08093B008F993099FDC2992249
:100875008B458A468947AB45AA46A9471204786045
:10088500130547E5477002054614F9120478FF126F
:05089500093B80E22296
:10089A00C2A7C2A6C2A58F807F017E00120003D222
:0B08AA00A57F017E00120003C2A52202
:1008B500D2A7C2A6C2A58F807F017E00120003D2F7
:0B08C500A57F017E00120003C2A522E7
:1008EA00D2A47F3012089A7F0C12089A7F06120847
:0608FA009A7F0102089A3A
:050943007F0102089A8B
:1007ED008B478A488949EDD39400748094805002D8
:1007FD00E4FDEDD394037480948040027D03530790
:10080D000FED14600F146011146013240370124364
:10081D000780800D430790800843078880034307B6
:10082D009812089AAB47AA48A949120478FF60109C
:10083D001208B574012549F549E43548F54880E4B9
:01084D002288
:0B091E00EF1FAC0670011E4C70F622AB
:10000300D3EF9400EE940040147D6E7C00ED1D70E0
:0D001300011CED4C70F7EF1F70E61E80E33E
:0100200022BD
:03000000020912E0
:0C091200787FE4F6D8FD7581580206E1FC
:10038200E709F608DFFA8046E709F208DFFA803E5D
:1003920088828C83E709F0A3DFFA8032E309F6084A
:1003A200DFFA8078E309F208DFFA807088828C83B2
:1003B200E309F0A3DFFA806489828A83E0A3F60866
:1003C200DFFA805889828A83E0A3F208DFFA804C40
:1003D20080D280FA80C680D4806980F28033801017
:1003E20080A680EA809A80A880DA80E280CA803380
:1003F20089828A83ECFAE493A3C8C582C8CCC583F8
:10040200CCF0A3C8C582C8CCC583CCDFE9DEE780C7
:100412000D89828A83E493A3F608DFF9ECFAA9F046
:10042200EDFB2289828A83ECFAE0A3C8C582C8CC9C
:10043200C583CCF0A3C8C582C8CCC583CCDFEADEB5
:10044200E880DB89828A83E493A3F208DFF980CC17
:1004520088F0EF60010E4E60C388F0ED2402B40410
:100462000050B9F582EB2402B4040050AF232345B7
:0604720082239003D27307
:10047800BB010689828A83E0225002E722BBFE0282
:09048800E32289828A83E49322B5
:10049100EF8DF0A4A8F0CF8CF0A428CE8DF0A42E7F
:0204A100FE2239
:1004A300C2D5EC30E709B2D5E4C39DFDE49CFCEE74
:1004B30030E715B2D5E4C39FFFE49EFE120544C3A3
:1004C300E49DFDE49CFC800312054430D507C3E49E
:0604D3009FFFE49EFE22E3
:10002600E5542448F8E60554227845300702784816
:10003600E475F0011205990204782000EB7F2ED2B8
:10004600008018EF540F2490D43440D4FF30040BB2
:10005600EF24BFB41A0050032461FFE55560021572
:10006600550558E5587002055730070D7845E47573
:10007600F001120599EF02053202084E7403D20709
:100086008003E4C207F5548B458A468947E4F55553
:10009600F557F558E55560077F2012006180F57524
:1000A60056FFC201C200C202C203C205C206C2088E
:1000B60012002FFF700D3007057F00120072AF5837
:1000C600AE5722B4255FC2D5C20412002FFF24D03A
:1000D600B40A00501A75F00A785530D50508B6FFEF
:1000E6000106C6A426F620D5047002D20380D924C0
:1000F600CFB41A00EF5004C2E5D204020272D20154
:1001060080C6D20080C0D20280BCD2D580BAD205C9
:1001160080B47F201200612002077401B5550040AB
:10012600F1120026FF12006102009AD208D2068060
:1001360095120026FB120026FA120026F94A4B7089
:100146000679437A037BFF20022EE555602A7E005E
:100156008E8275830012050560060EEE655670F0F8
:10016600C2D5EBC0E0EAC0E0E9C0E0EE1202B9D0C9
:10017600E0F9D0E0FAD0E0FB120478FF60AAEBC009
:10018600E0EAC0E0E9C0E0120061D0E02401F9D065
:10019600E03400FAD0E0FBE5560460DCD556D980A1
:1001A600877BFF7A0279B5D202809C79108002792A
:1001B60008C206C2088008D2D5790A8004790AC224
:1001C600D5E556047002F556E4FAFDFEFF12002648
:1001D600FC7B08200113120026FD7B1030000A125A
:1001E6000026FE120026FF7B20EC3382D592D550E6
:1001F60013C3E43000069FFFE49EFEE42001039D46
:10020600FDE49CFCE4CBF8C201EC700CCFCECDCC67
:10021600E824F8F870F38017C3EF33FFEE33FEEDF2
:1002260033FDEC33FCEB33FB994002FB0FD8E9EBD3
:10023600300105F8D0E0C448B201C0E00AEC4D4EEA
:100246004F78207B0070C2EAB5560040BCC0E01271
:1002560002BBD0F0D0E0200104C4C0E0C4B201C0AB
:10026600F012004AD0F0D5F0EB02009A1205A9016F
:10027600375301B15801084C01044201B54F01BD85
:0F0286004401BD49011D4301C35501A74601A70E
:100295004501A747036350010C2D01102E01332B97
:1002A500011423013120034C2A00CC480000012B06
:1002B5003F3F3F00790AA2D5200314300509B91044
:1002C500020404B9080104A2D52006025001042045
:1002D50002689202B555005034C0E07F2030031902
:1002E5007F30A20272067205500F120312C202C2BB
:1002F50006C205C2087F30800F300503E9C0E01251
:100305000061300503D0E0F9D0E0B555CC300517D4
:100315007F30B9100C1200617F583004077F788058
:1003250003B908031200613002057F2D0200617FC9
:10033500202008F87F2B2006F322920280CF286E1A
:10034500756C6C2900D2011200263001F8C20178C3
:100355005530D50108F60200CC2D504349581200FE
:10036500262403B405004001E490035E9312005275
:0D037500743A120052D2037555040201B112
:1004D900EF4E6012EF60010EEDBB010B89828A833A
:1004E900F0A3DFFCDEFA2289F05007F709DFFCA947
:0C04F900F022BBFEFCF309DFFCA9F0229E
:10050500BB010CE58229F582E5833AF583E02250AB
:1005150006E92582F8E622BBFE06E92582F8E222F5
:0D052500E58229F582E5833AF583E493220F
:10053200BB010689828A83F0225002F722BBFE01A8
:02054200F322A2
:10054400BC000BBE0029EF8DF084FFADF022E4CC9B
:10055400F875F008EF2FFFEE33FEEC33FCEE9DEC64
:10056400984005FCEE9DFE0FD5F0E9E4CEFD22EDAA
:10057400F8F5F0EE8420D21CFEADF075F008EF2FF4
:10058400FFED33FD4007985006D5F0F222C398FDE5
:050594000FD5F0EA2282
:10059900FAE6FB0808E6F925F0F618E6CA3AF62263
:1005A900D083D082F8E4937012740193700DA3A3E1
:1005B90093F8740193F5828883E4737402936860F5
:0605C900EFA3A3A380DFF5
:10084E00EFB40A07740D120859740A309811A8995A
:10085E00B8130CC2983098FDA899C298B811F6300A
:07086E0099FDC299F59922E2
:00000001FF
